{
  "contractName": "ExpenseTracker",
  "abi": [
    {
      "anonymous": false,
      "inputs": [
        {
          "indexed": true,
          "internalType": "address",
          "name": "user",
          "type": "address"
        },
        {
          "indexed": false,
          "internalType": "uint256",
          "name": "amount",
          "type": "uint256"
        },
        {
          "indexed": false,
          "internalType": "string",
          "name": "description",
          "type": "string"
        },
        {
          "indexed": false,
          "internalType": "uint256",
          "name": "timestamp",
          "type": "uint256"
        }
      ],
      "name": "ExpenseAdded",
      "type": "event"
    },
    {
      "inputs": [
        {
          "internalType": "uint256",
          "name": "_amount",
          "type": "uint256"
        },
        {
          "internalType": "string",
          "name": "_description",
          "type": "string"
        }
      ],
      "name": "addExpense",
      "outputs": [],
      "stateMutability": "nonpayable",
      "type": "function"
    },
    {
      "inputs": [],
      "name": "getExpenses",
      "outputs": [
        {
          "internalType": "uint256[]",
          "name": "",
          "type": "uint256[]"
        },
        {
          "internalType": "string[]",
          "name": "",
          "type": "string[]"
        },
        {
          "internalType": "uint256[]",
          "name": "",
          "type": "uint256[]"
        }
      ],
      "stateMutability": "view",
      "type": "function",
      "constant": true
    }
  ],
  "bytecode": "0x608060405234801561000f575f80fd5b50610c6b8061001d5f395ff3fe608060405234801561000f575f80fd5b5060043610610034575f3560e01c806341611b701461003857806383a36a9114610054575b5f80fd5b610052600480360381019061004d91906105a8565b610074565b005b61005c610171565b60405161006b939291906107ee565b60405180910390f35b5f803373ffffffffffffffffffffffffffffffffffffffff1673ffffffffffffffffffffffffffffffffffffffff1681526020019081526020015f20604051806060016040528084815260200183815260200142815250908060018154018082558091505060019003905f5260205f2090600302015f909190919091505f820151815f0155602082015181600101908161010e9190610a32565b506040820151816002015550503373ffffffffffffffffffffffffffffffffffffffff167f2db217f94ca7e3238db82ac9dbf85c04f6ae3e269c56e8d9076ea057c55f5ffd83834260405161016593929190610b58565b60405180910390a25050565b60608060605f805f3373ffffffffffffffffffffffffffffffffffffffff1673ffffffffffffffffffffffffffffffffffffffff1681526020019081526020015f2090505f818054905067ffffffffffffffff8111156101d4576101d3610484565b5b6040519080825280602002602001820160405280156102025781602001602082028036833780820191505090505b5090505f828054905067ffffffffffffffff81111561022457610223610484565b5b60405190808252806020026020018201604052801561025757816020015b60608152602001906001900390816102425790505b5090505f838054905067ffffffffffffffff81111561027957610278610484565b5b6040519080825280602002602001820160405280156102a75781602001602082028036833780820191505090505b5090505f5b8480549050811015610415578481815481106102cb576102ca610b94565b5b905f5260205f2090600302015f01548482815181106102ed576102ec610b94565b5b60200260200101818152505084818154811061030c5761030b610b94565b5b905f5260205f209060030201600101805461032690610865565b80601f016020809104026020016040519081016040528092919081815260200182805461035290610865565b801561039d5780601f106103745761010080835404028352916020019161039d565b820191905f5260205f20905b81548152906001019060200180831161038057829003601f168201915b50505050508382815181106103b5576103b4610b94565b5b60200260200101819052508481815481106103d3576103d2610b94565b5b905f5260205f209060030201600201548282815181106103f6576103f5610b94565b5b602002602001018181525050808061040d90610bee565b9150506102ac565b5082828296509650965050505050909192565b5f604051905090565b5f80fd5b5f80fd5b5f819050919050565b61044b81610439565b8114610455575f80fd5b50565b5f8135905061046681610442565b92915050565b5f80fd5b5f80fd5b5f601f19601f8301169050919050565b7f4e487b71000000000000000000000000000000000000000000000000000000005f52604160045260245ffd5b6104ba82610474565b810181811067ffffffffffffffff821117156104d9576104d8610484565b5b80604052505050565b5f6104eb610428565b90506104f782826104b1565b919050565b5f67ffffffffffffffff82111561051657610515610484565b5b61051f82610474565b9050602081019050919050565b828183375f83830152505050565b5f61054c610547846104fc565b6104e2565b90508281526020810184848401111561056857610567610470565b5b61057384828561052c565b509392505050565b5f82601f83011261058f5761058e61046c565b5b813561059f84826020860161053a565b91505092915050565b5f80604083850312156105be576105bd610431565b5b5f6105cb85828601610458565b925050602083013567ffffffffffffffff8111156105ec576105eb610435565b5b6105f88582860161057b565b9150509250929050565b5f81519050919050565b5f82825260208201905092915050565b5f819050602082019050919050565b61063481610439565b82525050565b5f610645838361062b565b60208301905092915050565b5f602082019050919050565b5f61066782610602565b610671818561060c565b935061067c8361061c565b805f5b838110156106ac578151610693888261063a565b975061069e83610651565b92505060018101905061067f565b5085935050505092915050565b5f81519050919050565b5f82825260208201905092915050565b5f819050602082019050919050565b5f81519050919050565b5f82825260208201905092915050565b5f5b838110156107195780820151818401526020810190506106fe565b5f8484015250505050565b5f61072e826106e2565b61073881856106ec565b93506107488185602086016106fc565b61075181610474565b840191505092915050565b5f6107678383610724565b905092915050565b5f602082019050919050565b5f610785826106b9565b61078f81856106c3565b9350836020820285016107a1856106d3565b805f5b858110156107dc57848403895281516107bd858261075c565b94506107c88361076f565b925060208a019950506001810190506107a4565b50829750879550505050505092915050565b5f6060820190508181035f830152610806818661065d565b9050818103602083015261081a818561077b565b9050818103604083015261082e818461065d565b9050949350505050565b7f4e487b71000000000000000000000000000000000000000000000000000000005f52602260045260245ffd5b5f600282049050600182168061087c57607f821691505b60208210810361088f5761088e610838565b5b50919050565b5f819050815f5260205f209050919050565b5f6020601f8301049050919050565b5f82821b905092915050565b5f600883026108f17fffffffffffffffffffffffffffffffffffffffffffffffffffffffffffffffff826108b6565b6108fb86836108b6565b95508019841693508086168417925050509392505050565b5f819050919050565b5f61093661093161092c84610439565b610913565b610439565b9050919050565b5f819050919050565b61094f8361091c565b61096361095b8261093d565b8484546108c2565b825550505050565b5f90565b61097761096b565b610982818484610946565b505050565b5b818110156109a55761099a5f8261096f565b600181019050610988565b5050565b601f8211156109ea576109bb81610895565b6109c4846108a7565b810160208510156109d3578190505b6109e76109df856108a7565b830182610987565b50505b505050565b5f82821c905092915050565b5f610a0a5f19846008026109ef565b1980831691505092915050565b5f610a2283836109fb565b9150826002028217905092915050565b610a3b826106e2565b67ffffffffffffffff811115610a5457610a53610484565b5b610a5e8254610865565b610a698282856109a9565b5f60209050601f831160018114610a9a575f8415610a88578287015190505b610a928582610a17565b865550610af9565b601f198416610aa886610895565b5f5b82811015610acf57848901518255600182019150602085019450602081019050610aaa565b86831015610aec5784890151610ae8601f8916826109fb565b8355505b6001600288020188555050505b505050505050565b610b0a81610439565b82525050565b5f82825260208201905092915050565b5f610b2a826106e2565b610b348185610b10565b9350610b448185602086016106fc565b610b4d81610474565b840191505092915050565b5f606082019050610b6b5f830186610b01565b8181036020830152610b7d8185610b20565b9050610b8c6040830184610b01565b949350505050565b7f4e487b71000000000000000000000000000000000000000000000000000000005f52603260045260245ffd5b7f4e487b71000000000000000000000000000000000000000000000000000000005f52601160045260245ffd5b5f610bf882610439565b91507fffffffffffffffffffffffffffffffffffffffffffffffffffffffffffffffff8203610c2a57610c29610bc1565b5b60018201905091905056fea264697066735822122080f9f5b4a24bac75b6e7fede5397f7a374ad4f5894c11b64049f88f76bb547f064736f6c63430008150033",
  "immutableReferences": {},
  "source": "// SPDX-License-Identifier: MIT\r\npragma solidity ^0.8.21;\r\n\r\ncontract ExpenseTracker {\r\n    struct Expense {\r\n        uint256 amount;\r\n        string description;\r\n        uint256 timestamp;\r\n    }\r\n\r\n    mapping(address => Expense[]) private userExpenses;\r\n\r\n    event ExpenseAdded(address indexed user, uint256 amount, string description, uint256 timestamp);\r\n\r\n    function addExpense(uint256 _amount, string memory _description) public {\r\n        userExpenses[msg.sender].push(Expense(_amount, _description, block.timestamp));\r\n        emit ExpenseAdded(msg.sender, _amount, _description, block.timestamp);\r\n    }\r\n\r\n    function getExpenses() public view returns (uint256[] memory, string[] memory, uint256[] memory) {\r\n    Expense[] storage expenses = userExpenses[msg.sender];\r\n    uint256[] memory amounts = new uint256[](expenses.length);\r\n    string[] memory descriptions = new string[](expenses.length);\r\n    uint256[] memory timestamps = new uint256[](expenses.length);\r\n\r\n    for (uint256 i = 0; i < expenses.length; i++) {\r\n        amounts[i] = expenses[i].amount;\r\n        descriptions[i] = expenses[i].description;\r\n        timestamps[i] = expenses[i].timestamp;\r\n    }\r\n\r\n    return (amounts, descriptions, timestamps);\r\n}\r\n\r\n}\r\n",
  "sourcePath": "C:\\project\\expense-tracker\\backend\\contracts\\ExpenseTracker.sol",
  "compiler": {
    "name": "solc",
    "version": "0.8.21+commit.d9974bed.Emscripten.clang"
  },
  "schemaVersion": "3.4.16",
  "updatedAt": "2025-12-14T06:19:49.258Z",
  "networkType": "ethereum",
  "devdoc": {
    "kind": "dev",
    "methods": {},
    "version": 1
  },
  "userdoc": {
    "kind": "user",
    "methods": {},
    "version": 1
  }
}